:020000040800F2
:10000000B00900205D0200081D2E0008A928000884
:10001000192E00087D06000831320008000000009B
:10002000000000000000000000000000252E000875
:100030008106000800000000212E0008292E00087B
:1000400077020008770200087702000877020008AC
:10005000770200087702000877020008770200089C
:10006000850600087702000877020008770200087A
:10007000770200087702000877020008770200087C
:10008000770200087702000877020008770200086C
:10009000770200087702000877020008770200085C
:1000A000770200087702000877020008770200084C
:1000B000770200087702000877020008770200083C
:1000C000770200087702000877020008770200082C
:1000D000770200087702000877020008770200081C
:1000E000770200087702000877020008770200080C
:1000F00077020008770200087702000877020008FC
:100100007702000877020008ED2E00087702000849
:100110007702000877020008F92E0008770200082D
:1001200077020008770200087702000877020008CB
:1001300077020008770200087702000877020008BB
:1001400077020008770200087702000877020008AB
:10015000770200087702000877020008770200089B
:10016000770200087702000877020008770200088B
:1001700077020008770200087702000800000000FC
:10018000770200087702000800F002F800F057F844
:1001900014A696E8000CB244B344DA4501D100F04D
:1001A0004EF8BAE80F000FA696E83000A5EB04055C
:1001B00004EB0607AAEB0704A7F101074FEA1515A0
:1001C0004FEA3414A4F10104AC4201D300F037F833
:1001D00013F0010F18BFFB1A43F0010300F001F800
:1001E000DBE718479C320000BC320000103A24BF05
:1001F00078C878C1FAD8520724BF30C830C144BF8C
:1002000004680C6070470000704700000023002461
:1002100000250026103A28BF78C1FBD8520728BF16
:1002200030C148BF0B607047642900F0F1800020A6
:1002300070471FB503F00AF91FBD10B510BD00F0DF
:10024000EBF91146FFF7F5FF03F070F800F009FA3B
:1002500003B4FFF7F2FF03BC02F0ECFF094880474C
:1002600009480047FEE7FEE7FEE7FEE7FEE7FEE798
:10027000FEE7FEE7FEE7FEE704480549054A064BB0
:1002800070470000D92E000889010008B003002043
:10029000B0090020B0050020B0050020704753EAE7
:1002A000020C00F069802DE9F04B4FF00006002BA6
:1002B0001FBFB3FA83F503FA05F424FA05F65E408E
:1002C00012BF1643B2FA82F502FA05F4C5F1200511
:1002D0001EBF22FA05FC44EA0C04203556EA044C01
:1002E0004FEA144418BF641C4FF000084FF0000997
:1002F000904271EB030C39D3002919BFB1FA81F791
:1003000001FA07F6B0FA80F700FA07F6C7F12007FE
:100310001EBF20FA07FC46EA0C062037B6FBF4FCA9
:10032000A7EB0507103F07F01F0BCBF120062CFAB7
:1003300006F60CFA0BFB44BFB3460026202FA4BFE1
:100340005E464FF0000B5BEA060C08BF4FF0010B56
:1003500019EB0B0948EB0608ABFB027C06FB02CC51
:100360000BFB03CCC01B71EB0C01C1E70B46024633
:1003700041464846BDE8F08B13B5084318BF4FF01F
:10038000FF300146AFF30080BDE81C40704700001D
:100390000FB4044910B503AA029800F00FF910BC7D
:1003A0005DF814FB740000202DE9F0410E46044670
:1003B000002020622046E168884730B3252805D018
:1003C000D4E901219047206A401CF2E7E168204609
:1003D00000278847050018D0A5F14100192802D848
:1003E00020354FF400673246294620462760FFF744
:1003F0001BFF40B1012804D0F61D26F00706083681
:10040000D8E7361DD6E72846DAE7206ABDE8F0814E
:100410002DE9F0410646002410687529314616A5DD
:1004200010D0AFF30080002802DA404213A507E0A5
:1004300031688A0701D512A502E0490704D511A544
:10044000012401E0AFF3008000210A2206F1240715
:1004500009E0B0FBF2FCB0FBF2F302FB1C00303011
:1004600078541846491C0028F3D123462A463046C2
:10047000BDE8F04100F049B8000000002D00000088
:100480002B0000002000000010B5044603E002F03D
:1004900033FF401C09D014F8010B05490028F6D1A0
:1004A000BDE810400A2002F027BF4FF0FF3010BD1A
:1004B000740000204FF0000200B5134694469646A3
:1004C000203922BFA0E80C50A0E80C50B1F1200167
:1004D000BFF4F7AF090728BFA0E80C5048BF0CC015
:1004E0005DF804EB890028BF40F8042B08BF704773
:1004F00048BF20F8022B11F0804F18BF00F8012BE5
:10050000704770477047704770472DE9F0470D46B8
:1005100099469246044600F124080168880604D5ED
:10052000E06921F01001216000E00120A84201DD16
:10053000471B00E00027A1697A1902EB0900081A9D
:10054000A0612078C00602D42046AFF300800026C8
:1005500008E0D4E901211AF806009047206A401CFF
:10056000761C20624E45F4DB2078C0060AD5204672
:10057000AFF3008006E0D4E9012130209047206AE3
:10058000401C2062381EA7F10107F4DC07E0D4E923
:10059000012118F805009047206A401C2062281E9F
:1005A000A5F10105F3DC2046AFF3008020780006BA
:1005B00002D50220BDE8F0870120FBE7074B70B5AC
:1005C0000D467B4400F011F80446284600F020F860
:1005D00010B14FF0FF3070BD204670BD332D0000CC
:1005E00001694A1C02610878704700B58FB0CDE9F7
:1005F00001310021059105497944CDE903101146E7
:100600006846FFF7D1FE0FB000BD0000E5FFFFFF19
:10061000007B00F080007047754600F02BF8AE4676
:1006200005006946534620F00700854618B020B5FE
:10063000FFF722FEBDE820404FF000064FF0000714
:100640004FF000084FF0000BAC46ACE8C009ACE836
:10065000C009ACE8C009ACE8C00921F007018D462B
:10066000704710B50446AFF300802046BDE8104047
:10067000FFF7EEBD0048704710000020FEE70000C5
:1006800070470000042000F0B9B9000072B600BF46
:10069000FEE70000B0B581B00022009290F83C2047
:1006A000012A01D1022157E0D1F800E001221FFA0E
:1006B0008EFC80F83C204FEA4C0212FA8EF302685E
:1006C000BEF10A0F32BF10321E3B0C3207241568F0
:1006D0009C4025EA040414608C68156804FA03F34E
:1006E0002B4313604A68062A07D802EB82014A1F8F
:1006F00001681F2351F8344F0CE001680C2A02EB0B
:10070000820203D851F8304F233A02E051F82C4FBF
:10071000413A1F23934024EA03030B600D680CFA4F
:1007200002F22A4342F204330A60C4F20103016870
:10073000BEF1120FA3F5417208BF914203D11D68AB
:1007400045F480051D602EF00105102D08BF914273
:1007500005D0002180F83C10084601B0B0BD1968F2
:10076000BEF1100F41F400011960F2D140F2040112
:10077000C2F2000109684DF68362C4F21B32A1FB8C
:100780000212910C01EB8101490000BF0091009918
:100790000029DED000990139F8E70000002804BFE5
:1007A0000120704710B50446006C30B9204600F0B7
:1007B0009BF80020606484F83C00206CC0063AD4AA
:1007C000206C41F202118843023042F2043120646D
:1007D000C4F20101086820F4403008600A6894E817
:1007E00009101A43D4F810E00A604168012321F48B
:1007F000807141604168C0F6007341EA0E2141609A
:10080000416821F040714160416841EA0C0141605A
:10081000816821F400618160E16882681143816030
:10082000A16A8268994222F070628260826804D173
:1008300022F040510AE0012052E0114381608168BA
:1008400021F040518160E16A8268114381608168D2
:1008500021F0020181608168227E94F8203041EA13
:1008600042018160416883B141F4006141604168A7
:100870004EF2000221F460414160616ACFF6FF72DE
:10088000436802EB4131194301E021F4006141600A
:10089000C16A40F2000C21F47001C162E269616931
:1008A000CFF6F07CC36A0CEB02521A43C262826834
:1008B00022F40072826094F83020836843EA422276
:1008C0008260826822F480628260826842EA8121CA
:1008D000816000206064216C012262F301012164C7
:1008E000002184F83C1010BDB0B586B0006842F21B
:1008F00000120024C4F20102C4F20204002190425A
:10090000CDE90411CDE90211019123D042F2000199
:10091000C4F20101884252D1002043F63001009018
:10092000C4F202014A6942F480724A614A6902F4DF
:1009300080720092009A0090086840F00100086000
:10094000086800F001000090009838200190032012
:1009500002902EE043F630000091C4F2020042699A
:10096000032542F400724261426902F4007200926F
:10097000009A0091026842F004020260026802F0EC
:1009800004020092009A0091026842F001020260A3
:10099000006800F00100009000980F200190CDE960
:1009A000025104F5006001A900F034F84020CDE9BF
:1009B00001050020039001A9204600F02BF806B0A5
:1009C000B0BD0000B0B5044600F004F9054640F2A1
:1009D0000800C2F200000078611C18BF044400BF88
:1009E00000F0F8F8401BA042FAD3B0BD40F270000E
:1009F000C2F20000142101707047000043F6144158
:100A0000C4F201010A68024214BF08607047FFF790
:100A1000EDBF00002DE9F04F82B000F13E4707F135
:100A2000FF77860546EA972741F60046C4F202069C
:100A30000822B04208BF0722072F38BF3A460024D9
:100A400000274FF00009009209E000BF09F10109F9
:100A50000237B9F1100F04F1040400F0A4800D680E
:100A6000012202FA09FC15EA0C08EFD0D1F804B013
:100A70000BF0030AAAF10105012D12D803228568A3
:100A800002FA07FECA6825EA0E05BA402A438260C8
:100A90004268CBF3001522EA0C0205FA09F52A4355
:100AA0004260BAF1030F1CD0C26803238E6803FAB8
:100AB00007F5AA43BE403243BAF1020FC26010D11B
:100AC0006FF0030202EA59020244D2F820C004F097
:100AD0001C050F230E69AB402CEA0303AE403343E1
:100AE0001362026803234E68BB409A4306F0030377
:100AF000BB401A4316F4403F0260A7D0002243F6E1
:100B000044030192C4F202031A6843F6004E42F411
:100B100080421A601A68C4F2010E02F48042019207
:100B2000019A29F003024FF6084C7244CFF6FF7C7D
:100B300052F80C3004F00C060F25B540AB43009D75
:100B400005FA06F6334342F80C30DEF808204B680D
:100B500042EA080643F60C4CDD0258BF22EA0806BA
:100B6000CEF80860C4F2010CDCF800209D0242EAD5
:100B7000080658BF22EA0806CCF80060DEF8042018
:100B80009D0342EA080658BF22EA0806CEF8046030
:100B9000DEF80020DB0342EA080658BF22EA080616
:100BA000CEF8006052E702B0BDE8F08F006908405F
:100BB00018BF012070470000426902EA0103914317
:100BC00041EA034181617047002A08BF090481613D
:100BD0007047000040F2A830C2F200000068704781
:100BE000002804BF01207047F0B581B0044690F89A
:100BF0003D0028B9002084F83C00204600F0A8F809
:100C0000242084F83D002068016821F00101016082
:100C1000016841F400410160016821F40041016074
:100C200000F090FA636848F2A16CC0F2010C40F643
:100C30000011C0F23D0163453CBF48F28041C0F263
:100C40001E01884202D2012001B0F0BD4DF6836141
:100C5000C4F21B31A0FB01122168970CD1F804E00B
:100C60004FF496762EF03F0545EA92454D60774366
:100C700048F638160D6AC0F24106A7FB067625F045
:100C80003F07634538BF960C721C3A430A62CA6933
:100C900048F2A0664CF6FF77C0F20106B34222EAA2
:100CA000070C0AD801385A00B0FBF2F001306FF39C
:100CB0001F30042898BF042020E0A2681927002ACA
:100CC00008BF032701385F43B0FBF7F701373F0543
:100CD00009D052B119225A43B0FBF2F0042201307C
:100CE00062F31F3008E0012008E003EB4302B0FB91
:100CF000F2F001306FF31F3040F4004040EA0C0086
:100D0000C8610868D4E9072320F0C00010431843E5
:100D10000860886848F2FF3204F10C0790438CCFDA
:100D200018431043A6698860C86820F0FF00384364
:100D30003043C860086840F00100086000202021AE
:100D4000206484F83D10206384F83E0001B0F0BDBB
:100D5000B0B586B045F200410068C4F2000100243D
:100D600088420594CDE903440294019401D006B071
:100D7000B0BD43F630050094C4F20205286840F087
:100D800002002860286800F0020000900098C0204F
:100D900001901220CDE90204032004900420059064
:100DA00001F5D83001A9FFF735FE0094286940F419
:100DB00000102861286900F400100090009806B027
:100DC000B0BD000040F2080040F2A831C2F20000BD
:100DD000C2F2000100780A68104408607047000001
:100DE00080B543F60040C4F20200016841F400718E
:100DF0000160016841F480610160016841F4807123
:100E00000160032000F0B8F80F2000F005F800F0B2
:100E10005BF8002080BD000070B586B0002543F669
:100E200040010195C4F202010A68044642F008023A
:100E30000A60096801A801F0080101910199694659
:100E400000F05AF9049E002E18BF012600F07AF92E
:100E50004DF68361B040C4F21B31A0FB01014FF09D
:100E6000FF3000EB914140F2CC2040F60042C2F24C
:100E70000000C4F2000240F2E733C0E90021C0E9FB
:100E800002530561856100F085FC0546C0B940F25A
:100E9000CC20C2F2000000F035FD054680B93220BA
:100EA00000F02EF80F2C0AD832202146002200F044
:100EB00037F840F20C00C2F20000046000E00125A7
:100EC000284606B070BD000082B0002043F6400105
:100ED0000190C4F202014A6842F480424A604A68C2
:100EE00002F480420192019A0090086840F080501C
:100EF0000860086800F080500090009802B07047C9
:100F0000002848BF704700F01F01012202FA01F1DA
:100F10004EF200124009CEF2000242F82010704753
:100F200010B54EF60C5CCEF2000CDCF80030C3F3CA
:100F3000022E8EF00704042C28BF0424BEF1030304
:100F40004FF0FF3E0EFA04F438BF0023A14399404E
:100F50000EFA03F39A43114300F1604200F00F03CD
:100F6000090102F56442043B6344002848BF03F1D1
:100F70000C02117010BD00004EF60C51CEF20001B3
:100F80000A684FF6FF031A4060F30A2242F08060BD
:100F900040F0FD7008607047002804BF01207047D2
:100FA0002DE9F04143F60808C4F202080446D8F8D7
:100FB000F8030D4600F00700884207D288F8F8537E
:100FC000D8F8F80300F00700A84276D1206881071E
:100FD00017D5410705D5D8F8001041F4E051C8F8FD
:100FE0000010010705D5D8F8001041F46041C8F899
:100FF0000010D8F80010A26821F0F0011143C8F8E1
:101000000010C0073FD1D8F8F80300F00700A8424D
:1010100007D988F8F853D8F8F80300F00700A84279
:101020004BD12068410707D5D8F80010E26821F4B9
:10103000E0511143C8F80010000708D5D8F80000A7
:10104000216920F4604040EAC100C8F8000000F0C7
:10105000A1F8D8F8001043F26642C1F30311C0F6BC
:101060000002515C40F2040220FA01F140F20C004F
:10107000C2F200000068C2F200021160FFF7CCFE6D
:101080000020BDE8F0816068811E022907D258F86F
:10109000081C89015CBF0120BDE8F08110E0012837
:1010A00007D158F8081C89035CBF0120BDE8F08116
:1010B00006E058F8081C890702D40120BDE8F08139
:1010C000D8F8001021F003010843C8F80000FFF72A
:1010D00081FD064641F28837D8F80000616800F0CB
:1010E0000C00B0EB810F8ED0FFF774FD801BB8426F
:1010F000F2D90320BDE8F0810F22026043F6080216
:10110000C4F20202136803F003034360136803F0A0
:10111000F0038360136803F4E053C360D2F800C0A7
:101120004FF4E05303EADC030361D2F8F80300F064
:10113000070008607047000040F20400C2F200009F
:101140000068704740F2040043F60801C2F2000054
:10115000C4F202010068096843F27642C1F38221B9
:10116000C0F60002515CC8407047000040F2040025
:1011700043F60801C2F20000C4F2020100680968E7
:1011800043F27642C1F34231C0F60002515CC840DE
:101190007047000010B543F60404C4F2020460680E
:1011A00000F00C0008280AD0042819BF42F20040C1
:1011B000C0F2F40047F64000C0F27D1010BD206878
:1011C00021682368490247F64001C0F27D1100F012
:1011D0003F02C3F388105CBF42F20041C0F2F40149
:1011E000A1FB00010023FFF75AF821680222C1F396
:1011F000014102EB4101B0FBF1F010BD002804BF3A
:10120000012070472DE9F04182B00446007843F692
:101210000006C007C4F2020647D0B06800F00C0018
:10122000042808D1306880033FD56068E8BB0120FE
:1012300002B0BDE8F081B06800F00C00082802D1CF
:1012400070684002EED46568B5F5A02F0AD0B5F5F8
:10125000803F0BD0306820F480303060306820F45C
:10126000802006E0306840F480203060306840F430
:1012700080303060FFF7AEFC002D054612D000BF75
:101280003068800311D4FFF7A5FC401B6428F7D910
:1012900026E100BFFFF79EFC401B64284FF00300CF
:1012A00000F2E28030688003F4D4207880071BD5F8
:1012B000B06810F00C0F09D0B06800F00C000828DE
:1012C00040F087807068400200F1838030688007BA
:1012D00003D5E068012840F09E803068216920F045
:1012E000F80040EAC10030602078000735D420784B
:1012F000400748D4A56965B3B06800F00C00082821
:1013000040F09E80012D00F086807068E16900F455
:1013100080028A4240F07F80216A00F03F028A42C8
:1013200079D147F6C071626A0140B1EB821F72D178
:10133000A16A4FF6FF73C903994300F44032A1F547
:1013400080318A4267D1E16A00F07060B0EB016FD2
:1013500061D1002002B0BDE8F0816069002840F250
:101360000000C4F247205AD00121C0F8801EFFF7C8
:1013700031FC0546706F8007B9D4FFF72BFC401B8A
:101380000228F7D9ACE0306C5FEAC0080AD400202C
:101390000190306C40F080503064306C00F0805030
:1013A0000190019847F20007C4F200073868C005B1
:1013B00024D4386840F480703860FFF70BFC054691
:1013C0003868C0051AD4FFF705FC401B0228F7D97E
:1013D00086E0E068002857D00020C4F247200121B1
:1013E0000160FFF7F7FB0546306880073FF575AFF2
:1013F000FFF7F0FB401B0228F6D971E0A568052D28
:1014000056D0012D58D0306F20F001003067306F7A
:1014100020F0040053E0012002B0BDE8F08100217B
:10142000C0F8801EFFF7D6FB054600BF706F80072F
:101430007FF55DAFFFF7CEFB401B0228F6D94FE0EA
:101440000027C4F2472700203866FFF7C3FB022DB0
:1014500005460DD13068800159D5FFF7BBFB401B15
:1014600002284FF00300F5D902B0BDE8F08100BFBB
:10147000306880017FF56DAFFFF7ACFB401B0228A1
:101480004FF00300F4D9EFE70020C4F24720002119
:101490000160FFF79FFB0546306880077FF524AFAA
:1014A000FFF798FB401B02284FF00300F4D9DBE75D
:1014B000306F40F004003067306F40F0010030675B
:1014C000FFF788FB002D054641F2883713D000BF97
:1014D000306F800712D4FFF77DFB401BB842F7D96D
:1014E000032002B0BDE8F081FFF774FB401BB84257
:1014F0004FF00300B8D8306F8007F5D4B8F1000F73
:101500003FF5F8AE306C20F080503064F2E604F124
:101510001C052FCD084340EA8210D9034FF6FF7215
:101520009143A1F5803140EA0560084370600120D5
:101530003866FFF74FFB0446306880013FF509AF7E
:10154000FFF748FB001B02284FF00300F4D98BE79C
:10155000704700007047000090F83C20012A04BF4B
:1015600002207047B0B501F108053CCDD1E900CEAD
:1015700023F47C5322F470521A432EF4F0431A439E
:101580002CF4E0431A4324F4C0431A432A43C969A4
:1015900022F48042036811435964002180F83C1012
:1015A000BDE8B0400846704770B588B0002858D0F4
:1015B000044690F83D000D4628B9002084F83C0010
:1015C000204600F053F8022084F83D002068211DD9
:1015D00001F098FC20682968AB68032201F060FDE7
:1015E00020680026816921F00C01816169688269A7
:1015F00011438161416841F080014160816821F0BF
:1016000070018160816841F040018160816821F052
:1016100007018160816841F00401816070210191BE
:10162000E968CDE90566CDE9021601A90796049699
:1016300001F002FD2068416821F0700141604168BD
:1016400041F050014160012084F8460084F83E00DA
:1016500084F83F0084F8420084F8430084F83D0099
:1016600000E00126304608B070BD000080B586B0AD
:1016700000680021B0F1804F0591CDE9031102917E
:10168000019101D006B080BD43F630000091C4F254
:101690000200026942F001020261026902F00102E5
:1016A0000092009A0091026842F001020260006814
:1016B00000F0010000900098072001900220CDE981
:1016C00002010120059000200491C4F2020001A94A
:1016D000FFF7A0F906B080BD90F83C20012A4FF03A
:1016E000020255D010B5012380F83C3080F83D202F
:1016F0000268D2F804E0D2F808C00C682EF070033B
:10170000234341F2FF74C4F20004A24253600DDC93
:1017100040F2FF73C4F200039A4215DCB2F1804F2D
:1017200029D040F20043C4F2000322E040F2FF332C
:10173000C4F201039A4212DC41F60003C4F2000332
:101740009A4218D0002312E040F60003C4F20003CE
:101750009A4210D040F60043C4F2000309E044F27C
:101760000003C4F201039A4205D040F20043C4F2E0
:1017700001039A4204D149682CF080031943916017
:101780000121002280F83D1080F83C20BDE8104087
:1017900010467047002804BF0120704710B504466A
:1017A00090F83D0028B9002084F83C00204600F065
:1017B0001FF8022084F83D002068211D01F0A2FBE3
:1017C000012084F8460084F83E0084F83F0084F845
:1017D000400084F8410084F8420084F8430084F813
:1017E000440084F8450084F83D00002010BD00004E
:1017F00080B582B0006841F20001C4F20001884265
:1018000016D040F60001C4F2000188420ED100203B
:10181000019043F64000C4F20200016841F0040167
:101820000160006800F004000190019802B080BDE2
:101830000020009043F64000C4F20200016800223C
:1018400041F01001016000680B2100F010000090D1
:1018500000983620FFF764FB362002B0BDE88040D8
:10186000FFF74EBB90F83D1001291CBF01207047C7
:10187000022180F83D10006841F2FF71C4F20001BE
:1018800088420DDC40F2FF71C4F20001884215DC91
:10189000B0F1804F29D040F20041C4F2000122E0B3
:1018A00040F2FF31C4F20101884212DC41F600012E
:1018B000C4F20001884218D0002112E040F6000175
:1018C000C4F20001884210D040F60041C4F2000189
:1018D00009E044F20001C4F20101884205D040F25F
:1018E0000041C4F20101884206D1816801F007017C
:1018F000062904BF00207047016841F00101016022
:101900000020704790F83D1001291CBF012070474E
:10191000022180F83D10006841F2FF72C168C4F2F4
:101920000002904241F00101C1600DDC40F2FF7104
:10193000C4F20001884215DCB0F1804F29D040F29A
:101940000041C4F2000122E040F2FF31C4F2010183
:10195000884212DC41F60001C4F20001884218D02E
:10196000002112E040F60001C4F20001884210D0CC
:1019700040F60041C4F2000109E044F20001C4F263
:101980000101884205D040F20041C4F201018842C1
:1019900006D1816801F00701062904BF00207047C5
:1019A000016841F0010101600020704790F83C207F
:1019B000012A4FF0020200F0C68080B5012380F8B2
:1019C0003C3080F83D20D0F800C04FF67772DCF84C
:1019D000083023EA0202CCF808200B684F2B28DCE1
:1019E0001F2B44DD202B45D0302B43D0402B40F023
:1019F000AC80D1F804E0C968DCF82030DCF82020A5
:101A000022F00102CCF82020DCF8182022F0F002AD
:101A100042EA011123F00A0242EA0E02CCF8181041
:101A2000CCF82020DCF8081041F0470121F030010B
:101A30007EE06F2B26DDB3F5005F47D0B3F5805F06
:101A400078D0702B40F08180D1E901E3C968DCF8DF
:101A5000082043EA0E0322F47F4243EA01211143A6
:101A6000CCF80810DCF8081041F0770160E00BB109
:101A7000102B6AD1DCF8081021F07001194341F0F5
:101A8000070155E0502B34D0602B5ED1D1F804E033
:101A9000C968DCF82030DCF8202022F01002CCF8F5
:101AA0002020DCF8182022F4704242EA013123F0B1
:101AB000A00242EA0E12CCF81810CCF82020DCF874
:101AC000081041F0670121F0100131E0D1E901E394
:101AD000C968DCF8082043EA0E0322F47F4243EA97
:101AE00001211143CCF80810DCF8081041F48041C2
:101AF0001EE0D1F804E0C968DCF82030DCF82020D2
:101B000022F00102CCF82020DCF8182022F0F002AC
:101B100042EA011123F00A0242EA0E02CCF8181040
:101B2000CCF82020DCF8081041F0570121F020010A
:101B3000CCF808100022012180F83D10002180F827
:101B40003C10BDE88040104670470122F3E70000DA
:101B5000002804BF012070472DE9F047044690F8A3
:101B60003D000D4628B9002084F83C00204600F0D6
:101B700049F8022084F83D00206844F20702816899
:101B800091438160211D01F0BDF920684FF6FF7877
:101B900081688269D0F820C0D5E9003ED5E9026AA3
:101BA00043EA0109AB6922EA080246EA03234FF639
:101BB000FC46B343D5E9076742EA0A0229691A439A
:101BC00042EA062242EA01112CF0AA026B6942EABB
:101BD0000E0241EA073142EA0312C0F8089081611F
:101BE0000262012084F8460084F83E0084F83F0039
:101BF00084F8420084F8430084F83D000020BDE8EA
:101C0000F087000080B586B040F200410068C4F261
:101C10000001002288420592CDE90322029201923E
:101C200001D006B080BD43F630000092C4F202003D
:101C3000036943F002030361036903F002030093A5
:101C4000009B0092036843F004030360006800F007
:101C5000040000900098C02001900220CDE902020B
:101C6000CDE9042001F5013001A9FEF7D3FE06B04D
:101C700080BD000080B590F83E2090F83F3090F88D
:101C800042E090F843C0042909D099B9012A4FF0E5
:101C9000010208BFBEF1010F2BD0104680BD012B01
:101CA0004FF0010208BFBCF1010FF6D1022280F80B
:101CB0003F2012E0012A4FF0010208BF012BECD1B6
:101CC000BEF1010FE9D1BCF1010FE6D1022280F88B
:101CD0003E2080F83F2080F8422080F843200429ED
:101CE0000ED081B901684FF0010C20316FF0010373
:101CF00017E0022280F83E2080F842200429F0D12B
:101D00000168203109E0016851F8202F22F001021A
:101D10000A600A6842F001020A604FF0100C6FF08E
:101D200010030A681A400A600A6842EA0C020A6054
:101D300000680022016841F001010160104680BD89
:101D40007047000070B504460068C5680669B107B1
:101D500016D515F0020113D06FF0020101610121C7
:101D600021778069800703D02046FFF7E9FF05E06F
:101D7000204600F0E3F9204600F066FB00202077C3
:101D8000700718D515F0040015D020686FF0040115
:101D9000016102212177806910F4407F03D0204641
:101DA000FFF7CEFF05E0204600F0C8F9204600F01E
:101DB0004BFB00202077300717D515F0080014D012
:101DC00020686FF00801016104212177C069800754
:101DD00003D02046FFF7B4FF05E0204600F0AEF93F
:101DE000204600F031FB00202077F00618D515F0D2
:101DF000100015D020686FF01001016108212177D3
:101E0000C06910F4407F03D02046FFF799FF05E03A
:101E1000204600F093F9204600F016FB00202077C2
:101E2000F00718BF15F0010002D1300609D412E006
:101E300020686FF001010161204600F0E7FB3006E9
:101E400009D515F0800006D020686FF0800101618F
:101E50002046FFF77DFB700609D515F0400006D03F
:101E600020686FF040010161204600F039FCB006A7
:101E700058BF70BD15F0200008D021686FF0200217
:101E800020460A61BDE87040FFF764BB70BD0000EA
:101E90002DE9F04186B0006840F60002C4F200026D
:101EA00000219042CDE90411CDE9021101914DD0FC
:101EB0000021C4F20101884266D1002643F63000B9
:101EC0000096C4F202000168002441F001010160A3
:101ED0000168C4F2020401F001010091009900962A
:101EE000016801AD41F00201016001684FF0020894
:101EF00001F002010091009900960168012741F06C
:101F0000100101600068294600F010000090009860
:101F1000802001902046CDE9028604960597FEF7C1
:101F200079FD0320CDE9010804F580602946CDE95B
:101F300003660597FEF76EFD4FF42850CDE90108C2
:101F4000CDE90366059704F580501AE043F63000AA
:101F50000091C4F20200026842F0080202600068C8
:101F600000F00800009000984FF48050019002208B
:101F7000CDE90201CDE904100020C4F2020000F511
:101F8000406001A9FEF746FD06B0BDE8F081000003
:101F900090F83C30012B04BF022070474FEAB20298
:101FA0000123032A80F83C3000F2C380F0B5DFE85B
:101FB00002F002326597026840F20045136A166A21
:101FC00023F0020326F001061662D2F804E0D2F8EC
:101FD00018C08E6842F48064C4F20105AC4243EA42
:101FE000060305D1CE6823F00C0326F00406334324
:101FF0000E68AC4206D1D1E905472EF44075254361
:1020000045EA070E2CF073073743C2F804E09761E6
:102010004968516389E0026840F20045136A176A13
:1020200023F0200327F010071762D2F804E0D2F85B
:1020300018C08E6842F48064C4F20105AC4243EAE1
:10204000061307D1CE686FF0400723F0C00307EAFC
:10205000061633430E68AC4206D1D1E905452EF48D
:102060004067254347EA850E2CF4E64747EA0627F2
:10207000C2F804E097614968916356E0026840F253
:102080000045136A176A23F4007327F480771762F8
:10209000D2F804E0D2F81CC08E6842F48064C4F226
:1020A0000105AC4243EA062307D1CE6840F2FF4760
:1020B000360223F44063BE4333430E68AC4206D17C
:1020C000D1E905452EF44057254347EA051E2CF07B
:1020D00073073743C2F804E0D7614968D16324E04D
:1020E000026840F20047D2F820C0136A42F48066CA
:1020F00023F4805313625368D4690D68D1F808E063
:10210000C4F20107BE4204D14E6923F4804343EA7E
:10211000861324F4E64646EA05265360D6614968EC
:102120002CF4005747EA0E33116413620023BDE814
:10213000F040002180F83C101846704770470000BE
:10214000002804BF0120704710B5044690F83D00F8
:1021500028B9002084F83C00204600F01FF8022037
:1021600084F83D002068211D00F0CCFE012084F899
:10217000460084F83E0084F83F0084F8400084F86C
:10218000410084F8420084F8430084F8440084F855
:10219000450084F83D00002010BD000000680021CB
:1021A000C4F20101884218BF704781B0002000903E
:1021B00043F64400C4F20200016841F001010160ED
:1021C000006800F001000090009801B07047000026
:1021D00090F83C30012B04BF022070474FEAB20256
:1021E0000123032A80F83C3000F2F8802DE9F04307
:1021F000DFE802F0023D7CBC036840F200461C6A46
:102200001A6A24F0020422F001021A621A46D3F874
:1022100004C052F818EF8F6843F48065C4F20106D9
:10222000B54244EA070405D1CF6824F00C0427F036
:1022300004073C430F68B54206D1D1E905582CF498
:1022400040762E4346EA080C2EF073063743C3F857
:1022500004C09F614F6809695F631C629F6947F012
:1022600008079F619F6927F004079F61B0E003683A
:1022700040F200481C6A1A6A24F0200422F010027E
:102280001A621A46D3F804C052F818EF8F6843F464
:102290008065C4F20108454544EA071407D1CF68B8
:1022A0006FF0400624F0C00406EA07163443D1F864
:1022B0000090454506D1D1E905562CF440672E43E0
:1022C00047EA860C2EF4E64747EA0927C3F804C01C
:1022D0009F614F6809699F631C629F6947F40067AB
:1022E0009F619F6927F480679F6170E0036840F2F7
:1022F00000481C6A1A6A24F4007422F480721A627C
:102300001A46D3F804C052F81CEF8F6843F4806576
:10231000C4F20108454544EA072408D1CF6840F2D9
:10232000FF463F0224F4406427EA06063443D1F80E
:102330000090454506D1D1E905562CF440572E436F
:1023400047EA061C2EF0730747EA0907C3F804C0E2
:10235000DF614F680969DF631C62DF6947F00807C6
:10236000DF61DF6927F00407DF6131E0036840F2D5
:102370000045D3F820C01A6A43F4806722F48052E3
:102380001A621A465C6852F81CEFD1F800808E6819
:10239000C4F20105AF4204D14D6924F4804444EAFB
:1023A00085142CF4005747EA06372EF4E64646EA31
:1023B00008265C60DE614E6809691E641F62DF6981
:1023C00047F40067DF61DF6927F48067DF61090296
:1023D0001368194300231160BDE8F043002180F821
:1023E0003C10184670470000002804BF01207047C9
:1023F00010B5044690F83D0028B9002084F83C0050
:10240000204600F01FF8022084F83D002068211DBE
:1024100000F078FD012084F8460084F83E0084F83E
:102420003F0084F8400084F8410084F8420084F8BA
:10243000430084F8440084F8450084F83D000020FF
:1024400010BD0000704700007047000041B108292E
:1024500009D0042914BF00F1410200F13F0204E059
:1024600000F13E0201E000F140021278012A1CBF97
:1024700001207047022241B1082909D0042914BF64
:1024800080F8412080F83F2004E080F83E2001E001
:1024900080F84020006801F01F010122036A02FA5F
:1024A00001F123EA01020262026A0A4341F2FF716A
:1024B000C4F20001884202620BDC40F2FF71C4F2F8
:1024C0000001884213DCB0F1804F45D040F200415A
:1024D00015E040F2FF32C4F20102904214DC41F6F2
:1024E0000003C4F20003984236D0002314E040F603
:1024F0000001C4F2000188422ED040F60041C4F22F
:102500000001884228D02CE044F20003C4F2010309
:10251000984221D040F20043C4F20103984220D1F6
:10252000436C884243F400434364C6DD904207DCB9
:1025300041F60001C4F2000188420DD0002107E0FD
:1025400044F20001C4F20101884205D040F200418A
:10255000C4F20101884204D1816801F00701062913
:1025600003D0016841F001010160002070470000C4
:1025700010B5026801F01F0E4FF0010C146A0CFA3E
:102580000EF324EA0303136240F20043D2F820C0A2
:1025900042F48064C4F201039C42C2F820C00DD111
:1025A000136A41F21114234208D1136A40F24444E1
:1025B000234203D1536C23F400435364136A41F262
:1025C0001114234204D1136A40F24444234212D02E
:1025D000082916D0042909D000294FF0010114BFA1
:1025E00080F8411080F83E10002010BD012180F8D5
:1025F0003F10002010BD136823F001031360082969
:10260000E8D1012180F84010002010BDB0B504468B
:10261000006840F60045C4F20005A84208BFFEF776
:10262000D1FB206805F58061884209D140F2700035
:10263000C2F20000017819B10A390A06017000D00F
:10264000B0BD05F501300421FEF7B0FA002818BF2F
:10265000B0BD40F2A43440F2A635C2F20004C2F28A
:10266000000521882A7815A0FDF792FE2088297898
:1026700030B9012904D00021297000F10A0117E0C6
:10268000632811D80A2806D8012904D100F01CFEBD
:10269000002028702080287821886FF00902002807
:1026A00008BF0A22114403E001212970A0F10A01A8
:1026B00088B22180BDE8B04000F0FEBD6D6F746F40
:1026C000722073706565642069732025642C7370B3
:1026D0006565645F6469722069732025640D0A0072
:1026E00070470000002804BF0120704710B5044661
:1026F00090F8410028B9002084F84000204600F0FE
:1027000021F8242084F841002068C16821F4005198
:10271000C160204600F018FD2068016921F4904155
:102720000161416921F02A014161C16841F4005110
:10273000C16000202021606484F8411084F84210B8
:10274000606310BD80B586B041F200010068C4F23C
:102750000101002288420592CDE9032202920192F2
:1027600001D006B080BD43F630000092C4F20200F2
:10277000436943F010034361436903F0100300937E
:10278000009B0092036843F001030360006800F0BF
:102790000100009000984FF4C06001900220CDE944
:1027A0000202032004900720059001F5704001A962
:1027B000FEF730F906B080BD2DE9F04381B0044644
:1027C00090F8410020281CD1884600294FF00100D4
:1027D00066D01646002A63D00020606421201D4682
:1027E00084F84100FEF7F6F9A684E684A16806465F
:1027F000B1F5805F01D1206938B1C1464FF00008C2
:1028000005E0022001B0BDE8F0834FF00009E08C44
:1028100048B36F1C0CE0B9F1000F1BD019F8010B85
:1028200021684860E08C0138E084E08CD8B100BFBA
:10283000206800680006EED4002FF9D0FEF7CAF930
:1028400001464FF0030045B3891BA94225D82068F3
:10285000C068EDE738F8020B21686FF35F2048602D
:102860004FF00009DEE720680068400614D46F1CB2
:1028700004E000BF2068006840060DD4002FF9D0A6
:10288000FEF7A8F901464FF0030035B1891BA942B4
:1028900003D82068C068EDE70020202184F84110AB
:1028A00001B0BDE8F0830000FEE70000B0B584B0E1
:1028B00040F2C80042F2000101230024C2F20000ED
:1028C000C4F20101C0F600730125CDE90244CDE94F
:1028D00000444FF48032047680F82040C0E90A3486
:1028E000C56180F8304080E81600C0E903444561C6
:1028F000FDF754FF002818BFFDF7C8FE0320CDE9FF
:10290000000540F2C800C2F2000069460294FDF7DB
:10291000C1FE002818BFFDF7B9FE04B0B0BD00002D
:10292000B0B584B040F2101042F20011012300242F
:10293000C2F20000C4F20101C0F600730125CDE926
:102940000244CDE900444FF48032047680F8204000
:10295000C0E90A34C56180F8304080E81600C0E95B
:1029600003444561FDF71AFF002818BFFDF78EFEEE
:102970000620CDE9000540F21010C2F200006946C1
:102980000294FDF787FE002818BFFDF77FFE04B014
:10299000B0BD00002DE9F04786B0002743F63000B7
:1029A0000597CDE90377CDE901770097C4F20200DE
:1029B000016840F2004541F0100101600168C4F275
:1029C000020501F0100100910099009701680122B1
:1029D00041F08001016001684FF4006901F080015D
:1029E00000910099009701684FF0010841F004013F
:1029F0000160016801F004010091009900970168ED
:102A000041F001010160016801F0010100910099AC
:102A10000097016841F002010160016801F00201C4
:102A2000009100990097016841F008010160006879
:102A30004FF4006100F00800009000982846FEF76F
:102A4000C3F805F50064204640F60301002240F675
:102A5000030AFEF7B9F8042001904FF4041001AE08
:102A6000CDE9020805F540603146FDF7D3FF284661
:102A70003146CDE90198CDE90377FDF7CBFF20463C
:102A80003146CDE901A8CDE90377FDF7C3FF082062
:102A90000A210022FEF744FA0820FEF731FA06B0B8
:102AA000BDE8F08780B540F2581045F20041C2F20F
:102AB0000000C4F2000148F2A06200234FF4804CF1
:102AC000C0F2010280E80E00C0E9033CC0E9053312
:102AD000C0E90733FEF784F8002808BF80BDBDE8D1
:102AE0008040FDF7D3BD000010B592B040F2AC10AD
:102AF00000210024C2F20000C4F201014FF6FF726F
:102B00001194CDE90F44CDE90D44CDE90B44CDE955
:102B10000944CDE90744CDE90544CDE90344CDE9B5
:102B20000144C0E90014C0E90242C0E904448461E0
:102B3000FFF706FB002818BFFDF7A8FD40F2AC1018
:102B4000C2F2000010A9CDE91044FEF7C5FD00282F
:102B500018BFFDF79BFD00200F90CDE90D00CDE9DA
:102B60000B00CDE9090040F2AC10C2F2000009A947
:102B70000022FFF70DFA002818BFFDF787FD40F28D
:102B8000AC10C2F2000009A90422FFF701FA0028E4
:102B900018BFFDF77BFD40F2AC10C2F2000009A99E
:102BA0000822FFF7F5F9002818BFFDF76FFD002098
:102BB0000590CDE90300CDE901004FF400510890E4
:102BC00040F2AC100691C2F2000001A9FEF7C4FC6D
:102BD000002818BFFDF75AFD40F2AC10C2F2000009
:102BE000FFF756F912B010BD10B586B040F2F410E0
:102BF0000024C2F200004FF080414FF0FF32C0E9E4
:102C0000001402A9CDE90444CDE90244CDE9004411
:102C1000C0E9024204618461FEF7C6FC002818BFC7
:102C2000FDF734FD5020CDE9000440F2F410C2F26B
:102C300000006946FEF750FD002818BFFDF726FD8D
:102C400006B010BDB0B58CB003AC20462421FDF712
:102C500031FC40F23C2040F200410025C2F200006D
:102C6000C4F20001C0E9001503214FF6FF72CDE95F
:102C700003150121C0E90252CDE905150A22CDE96B
:102C800009152146CDE9005505618561CDE9072586
:102C90000B92FEF75DFF002818BFFDF7F7FC40F22E
:102CA0003C20C2F200006946CDE90055FEF714FD54
:102CB000002818BFFDF7EAFC0CB0B0BD10B58EB00F
:102CC00040F2842040F600020021C2F20000C4F26B
:102CD0000002532363240D91CDE90B11CDE90911B5
:102CE000CDE90711CDE90511CDE90311CDE90111B8
:102CF000C0E90023C0E9021401618161FEF74AFDC9
:102D0000002818BFFDF7C2FC4FF480500A9040F233
:102D10008420C2F200000AA9FEF748FE002818BF6E
:102D2000FDF7B4FC40F28420C2F20000FFF75CFB28
:102D3000002818BFFDF7AAFC40F284200024C2F24C
:102D4000000008A9CDE90844FEF7C6FC002818BF1A
:102D5000FDF79CFC602001900120CDE9020440F2C7
:102D60008420C2F2000001A900220594FFF730FA86
:102D7000002818BFFDF78AFC40F28420C2F2000050
:102D8000FFF786F80EB010BD10B582B040F21430D7
:102D900041F200010024C2F20000C4F2000142F23C
:102DA0000F73CDE90044532280E81600C3608461AC
:102DB000FEF7F0FC002818BFFDF768FC40F2143065
:102DC000C2F200006946CDE90044FEF785FC002808
:102DD00018BFFDF75BFC02B010BD000080B540F2EB
:102DE0005C3041F20001C2F20000C4F20101002394
:102DF0004FF00C0C4FF4E13280E80E00C0E90333D1
:102E0000C0E905C3C361FFF76DFC002808BF80BDA2
:102E1000BDE88040FDF73ABCFEE70000FEE7000099
:102E200070470000704700007047000070B592B016
:102E300006AC20463021FDF73DFB002543F640005F
:102E40000595CDE90355CDE901550095C4F2020081
:102E50000168022641F080510160006800F0805056
:102E60000090009847F200000095C4F2000001684D
:102E700041F480410160006800F4804000900098B7
:102E8000012006904FF4803007904FF480000D90A1
:102E900019200E904FF4A870CDE90F060420119070
:102EA00020460C96FEF7AAF908B172B6FEE70F208D
:102EB000CDE901064FF4A05004904FF480500590E6
:102EC00001A805210395FEF767F810B172B600BF9F
:102ED000FEE712B070BD00004EF68850CEF2000042
:102EE000016841F4700101607047000040F2CC209D
:102EF000C2F20000FEF726BF40F21430C2F200001A
:102F0000FEF720BF10B540F6FF3E0368C4F2000E86
:102F100040F2004C7045C4F2010C0FDCB0F1804F60
:102F200019D040F20042C4F20002904213D040F6A1
:102F30000002C4F2000290420DD010E040F60042C0
:102F4000C4F20002904206D0604504D00022C4F2D0
:102F50000102904203D14A6823F07003134341F603
:102F6000FF72C4F2000290420DDC70451FDCB0F12C
:102F7000804F41D040F20042C4F2000290423BD068
:102F800040F6000221E043F6FF72C4F201029042D3
:102F900020DC42F20002C4F2000290422CD0002257
:102FA000C4F20102904227D0604525D028E040F6C7
:102FB0000042C4F2000290421ED041F60002C4F268
:102FC0000002904218D041F60042C4F20002904242
:102FD00012D015E044F20002C4F2010290420BD07C
:102FE00044F60002C4F20102904205D044F20042CD
:102FF000C4F20102904203D1CA6823F44073134320
:1030000023F080024B69D1F800E08C681A4302601B
:10301000C46240F48062C0F828E0624504BF0969D8
:103020000163012141610169C90708BF10BD016940
:1030300021F00101016110BD70B5026A036A40F21E
:10304000004423F010030362D0F804E0D0F818C065
:103050008B6822F0200540F48062C4F20104A24291
:1030600045EA031307D1CD686FF0400623F0C00393
:1030700006EA05152B430D68A24206D1D1E90524C5
:103080002EF44066224346EA820E2CF4E64242EADF
:103090000522C0F804E0826149688163036270BD63
:1030A00010B5D0F820C0D0F820E041F2FF742EF027
:1030B000010EC0F820E0D0F818E0C4F20004A042ED
:1030C0000DDC40F2FF74C4F20004A04215DCB0F144
:1030D000804F29D040F20044C4F2000422E040F2C4
:1030E000FF34C4F20104A04212DC41F60004C4F231
:1030F0000004A04218D0002412E040F60004C4F2FC
:103100000004A04210D040F60044C4F2000409E0DC
:1031100044F20004C4F20104A04205D040F200448D
:10312000C4F20104A0420CD12EF00304224363F345
:1031300007122CF00A0301F00A01194482610162AE
:1031400010BD4EF00102F2E710B504460068D4E964
:1031500002C22369016921F440511143016162698E
:1031600043EA0C01E3691143C268194349F20C6355
:103170009A431143C1604169A26921F4407141F24F
:103180000043114340F48062C4F201039A4241615A
:1031900002D1FDF7EBFF01E0FDF7D4FFE1696368C1
:1031A0001922B1F5004FA0FB020120D15A00DB0F1C
:1031B000FDF775F848F21F51C5F2EB11A0FB012392
:1031C0005A094FF69C73C0F6FF7303F1805302FB5C
:1031D0000300322303EBC000A0FB01014FF4F870A1
:1031E00000EA111000EB0210C1F342111CE09A003A
:1031F0009B0FFDF754F848F21F51C5F2EB11A0FBED
:1032000001235A094FF69C73C0F6FF7302FB0300BB
:10321000322303EB0010A0FB0101F02000EA511063
:1032200000EB0210C1F3431108442168886010BD0F
:10323000FEE7000070470000F0B587B00020069060
:10324000CDE90400CDE90200019043F63000C4F25C
:103250000200016840F6004441F008010160006886
:10326000C4F2020400F0080001900198032002ADAE
:103270000126029002272046294603960597FDF76E
:10328000C9FB204601210122FDF79EFC20460221B8
:103290000122FDF799FC4FF4005002902046294688
:1032A00003960597FDF7B6FB20464FF40051002228
:1032B000FDF78AFC07B0F0BD40F28421C2F20001A4
:1032C000096848637047000010B540F60044C4F236
:1032D0000204204601210022FDF776FC204602214F
:1032E0000022FDF771FC40F28420C2F200000021B0
:1032F000BDE81040FFF73CB910B582B040F25C3435
:10330000C2F20004019020686FF04001016001A941
:10331000204601224FF6FF73FFF74EFA206800BFE8
:1033200001684906FCD5019802B010BDFDF758FDB3
:10333000FFF77CFDFFF72EFBFFF7B4FBFFF7D4FB95
:10334000FFF752FCFFF77EFCFFF7B8FCFFF746FDE6
:10335000FFF7ACFAFFF7E4FAFFF716FDFDF7ECFE16
:103360004DF68365C4F21B35A0FB05018C0CFDF7FF
:1033700011FFA0FB05018A0C21A02146FDF708F8EA
:1033800040F21430C2F20000FEF7BCFAFFF754FF1F
:1033900040F28420C2F200000021FFF757F840F20B
:1033A0003C28C2F2000840463C21FEF763FC404640
:1033B000FEF758FA1BA0FDF767F847F6D50748F661
:1033C000371440F20045C2F2E967C0F24104C4F28A
:1033D000020519A6FDF7FEFB78434FEAF000A04274
:1033E000F8D80120FDF7EEFA28464FF40061FDF70A
:1033F000E3FBD8F80000416A3046FCF7C9FFE9E773
:1034000068636C6B2069732025644D687A2C73792E
:1034100073636C6B2069732025644D687A200D0AF4
:10342000000000006170702069732072756E202E9C
:103430002E2E2E2E0D000000656E636F64652076C3
:10344000616C203D2025640D0A000000F1EE100A99
:103450004FF6FF71C0F2C03120EA010040F0407029
:10346000E1EE100A704700000000000000000102B9
:10347000030406070809000000000102030400001D
:10348000A03400080000002010000000EC0100083B
:10349000B034000810000020A00900000C02000851
:1034A000010000000024F4000100000010000000F2
:040000050800018965
:00000001FF
